:100000000C94C1040C9408050C9408050C94080584
:100010000C9408050C9408050C9408050C9408052C
:100020000C9408050C9408050C9436240C940825AF
:100030000C947E1B0C9408050C9408050C94080580
:100040000C9408050C9408050C9408050C940805FC
:100050000C9408050C94E61B0C9408050C940805F8
:100060000C9408050C9408050C9408050C940805DC
:100070000C9408050C9408050C9408050C940805CC
:100080000C9408050C9408050C9408050C940805BC
:100090000C9408050C9408050C9408050C940805AC
:1000A0000C9408050C9408050C940805BC05BE05C5
:1000B000C905C005C205C405C605C805CB05CD05E3
:1000C000CF05DA05D105D305D505D705D905DC055A
:1000D000C511C511F711F71131124F1270137013BA
:1000E0005A127013FD12FD126113701370136A130C
:1000F0000A130A130A130A130A130A130A130A1318
:100100000A130A130A130A130A130A130A130A1307
:10011000191327132E1335133F13F013F013021482
:100120000214F913021402140214F013F013FE1354
:1001300002140214FE13752597258A2697258A2610
:10014000DC25FF258A265426672601510000000081
:10015000000000000000000002510000000000004C
:10016000000000000000A9000000000000000000E6
:1001700000000000AA0000000000000000000000D5
:100180000000AE00000000000000000000000000C1
:10019000AD000100000000000000000000000000B1
:1001A0003470000000000000000000000000367005
:1001B0000000000000000000000000003770000098
:1001C0000000000000000000000038700000000087
:1001D0000000000000000000397000700000000006
:1001E000000000000000000001000000000000000E
:1001F0000000000000003A70000000000000000055
:10020000000000003B700000000000000000000043
:1002100000004B0000000000000000000000000093
:100220004E0001000000000000000000000000007F
:1002300001000000000000000000000000000100BC
:1002400000000000000000000000000001000000AD
:10025000000000000000000000000100000000009D
:10026000000000000000000001000100000000008C
:10027000000000000000000001000000000000007D
:10028000000000000000010000000000000000006D
:10029000000000000100000000000000000000005D
:1002A000000001000000000000000000000000004D
:1002B000010001000000000000000000000000003C
:1002C000010000000000000000000000000001002C
:1002D000000000000000000000000000010000001D
:1002E000000000000000000000000100000000000D
:1002F00000000000000000000100010000000000FC
:1003000000000000000000000100000000000000EC
:1003100000000000000001000000000000000000DC
:1003200000000000010000000000000000000000CC
:1003300000000100000000000000000000000000BC
:1003400001000100000000000000000000000000AB
:10035000010000000000000000000000000001009B
:10036000000000000000000000000000010000008C
:10037000000000000000000000000100000000007C
:10038000000000000000000001000100000000006B
:10039000000000000000000001000000000000005C
:1003A000000000000000010000000000000000004C
:1003B000000000000100000000000000000000003C
:1003C000000001000000000000000000000000002C
:1003D000010001000000000000000000000000001B
:1003E000010000000000000000000000000001000B
:1003F00000000000000000000000000001000000FC
:1004000000000000000000000000010000000000EB
:1004100000000000000000000100010000000000DA
:1004200000000000000000000100000000000000CB
:1004300000000000000001000000000000000000BB
:1004400000000000010000000000000000000000AB
:10045000000001000000000000000000000000009B
:10046000010001000000000000000000000000008A
:10047000010000000000000000000000000001007A
:10048000000000000000000000000000010000006B
:10049000000000000000000000000100000000005B
:1004A000000000000000000001000100000000004A
:1004B000000000000000000001000000000000003B
:1004C000000000000000010000000000000000002B
:1004D000000000000100000000000000000000001B
:1004E000000001000000000000000000000000000B
:1004F00001000100000000000000000000000000FA
:1005000001000000000000000000000000000100E9
:1005100000000000000000000000000001000000DA
:1005200000000000000000000000010000000000CA
:1005300000000000000000000100010000000000B9
:1005400000000000000000000100000000000000AA
:10055000000000000000010000000000000000009A
:10056000000000000100000000000000000000008A
:10057000000001000000000000000000000000007A
:100580000100010000000000000000000000000069
:100590000100000000000000000000000000010059
:1005A000000000000000000000000000010000004A
:1005B000000000000000000000000100000000003A
:1005C00000000000000000000100643214643214D6
:1005D000783C1E1E140A0500000000010101020201
:1005E000030405050607090A0B0C0E0F111214155A
:1005F00017191B1D1F212325282A2C2F313436398A
:100600003B3E414346494C4F5255585A5D616467E1
:100610006A6D707376797C7F8386898C8F929598CA
:100620009B9EA2A5A7AAADB0B3B6B9BCBEC1C4C6B5
:10063000C9CBCED0D3D5D7DADCDEE0E2E4E6E8EA17
:10064000EBEDEEF0F1F3F4F5F6F8F9FAFAFBFCFD58
:10065000FDFEFEFEFFFFFFFFFFFFFFFEFEFEFDFDB6
:10066000FCFBFAFAF9F8F6F5F4F3F1F0EEEDEBEA4B
:10067000E8E6E4E2E0DEDCDAD7D5D3D0CECBC9C6FB
:10068000C4C1BEBCB9B6B3B0ADAAA7A5A29E9B9883
:1006900095928F8C898683807C797673706D6A677A
:1006A00064615D5A5855524F4C494643413E3B396F
:1006B0003634312F2C2A282523211F1D1B191715ED
:1006C0001412110F0E0C0B0A09070605050403028C
:1006D0000201010100000000000000000101010111
:1006E00001010101010202020202020202020303ED
:1006F00003030303030304040404040405050505BC
:100700000506060606060707070708080808090978
:10071000090A0A0A0A0B0B0B0C0C0C0D0D0D0E0E20
:100720000F0F0F10101111111212131314141515AD
:1007300016161717181819191A1A1B1C1C1D1D1E1E
:100740001F1F202021222223242525262727282970
:100750002A2B2B2C2D2E2F2F303132333435363699
:100760003738393A3B3C3D3E3F404142434446479F
:1007700048494A4B4C4D4F50515253555657585A71
:100780005B5C5E5F606263646667696A6C6D6E7015
:100790007173747678797B7C7E8081838486888A85
:1007A0008B8D8F91929496989A9B9D9FA1A3A5A7BC
:1007B000A9ABADAFB1B3B5B7B9BBBDBFC1C4C6C8B6
:1007C000CACCCFD1D3D6D8DADCDFE1E4E6E8EBED72
:1007D000F0F2F5F7FAFCFF12036B00650079006296
:1007E000006F006100720064000000160371006D6C
:1007F000006B006200750069006C006400650072A7
:100800000000000403090409026D00040100A0FABD
:100810000904000001030101000921110100012266
:1008200040000705810308000A09040100010301D3
:100830000200092111010001224D00070582030871
:10084000000A09040200010300000009211101004F
:10085000012236000705830308000A09040300018A
:10086000030000000921110100012239000705845D
:10087000032000011201100100000008EDFE60607D
:1008800001000102000105010906A101050719E0A7
:1008900029E7150025019508750181020508190150
:1008A00029059505750191029501750391010507CB
:1008B000190029F71500250195F875018102C00579
:1008C000010980A10185021601002603001A81009A
:1008D0002A8300751095018100C0050C0901A10152
:1008E0008503160100269C021A01002A9C0275103D
:1008F00095018100C005010902A1010901A10005BE
:100900000919012905150025019505750181029533
:1009100001750381010501093009311581257F9594
:10092000027508810609381581257F9501750881B2
:1009300006050C0A38021581257F95017508810688
:10094000C0C005010906A101050719E029E7150046
:100950002501950875018102950175088101050839
:1009600019012905950575019102950175039101FC
:100970000507190029FF150026FF00950675088157
:1009800000C011241FBECFEFDAE0DEBFCDBF04B63A
:1009900003FE27C08091460290914702A091480231
:1009A000B09149028730904BA740B04BD1F41092E0
:1009B000460210924702109248021092490214BE59
:1009C00084B7877F84BF0FB6F894A89580916000A4
:1009D000886180936000109260000FBEE0E0F8E351
:1009E000099511E0A0E0B1E0EEECF0E502C0059061
:1009F0000D92A433B107D9F722E0A4E3B1E001C01E
:100A00001D92A634B207E1F70E9481210C9465285B
:100A10000C9400001F93CF93DF93C82FD62F142F71
:100A20000E946C108D2F0E946C10812F0E946C1000
:100A3000812F0E9434118D2F0E9434118C2FDF9151
:100A4000CF911F910C9434118034904771F4FB01C5
:100A50008281882359F046E450E066EE70E084EE2F
:100A600090E00E940A0580E0089581E008950895CD
:100A70000895089581E008950C9424050E94DC13E4
:100A80002FEF84E39CE0215080409040E1F700C0CC
:100A900000000C940B1CFF920F931F93CF93DF93D6
:100AA0008C01FC01C081D18180917901811113C039
:100AB0008281882349F0CE010E945A19F82E682FAE
:100AC000CE010E94011904C0CE010E942D19F82EFA
:100AD000BE018F2D04C0CE010E945A19BE010E9492
:100AE000C606EC01B8010E943C05882309F43BC10D
:100AF000B801CE010E94D708882309F434C1C63357
:100B0000F0E7DF0741F4F8018281882309F42BC163
:100B10000E94B10B28C1C73380E7D80708F09AC0FC
:100B2000C53190E7D90708F07EC0C230E0E7DE07A4
:100B300008F452C0F8018281882309F459C00E9448
:100B40000F1B811102C00E94EE1A0E942C1B90E024
:100B50009093380280933702FE01E350F047E23170
:100B6000F10530F4EA5AFF4F809137020C941728B0
:100B700080913702816027C0826025C0846023C0D5
:100B8000806121C080621FC080641DC080681BC05E
:100B90008460886018C08E7F16C08D7F14C08B7FE4
:100BA00012C08F7E10C08F7D0EC08F7B0CC08F77E0
:100BB0000AC08B7F877F07C087FB222720F991E03F
:100BC000922790FB87F980933702809137020E9429
:100BD000301B0E94DC13C7C0C115F0E7DF0781F0AE
:100BE000C130D047A9F081E080933601809337016E
:100BF000C801DF91CF911F910F91FF900C943A059E
:100C0000F8018281882309F4AEC00E943E05ABC082
:100C1000F8018281882309F4A6C08091F8018160DF
:100C20008093F801A0C0C43390E7D90741F4F801DC
:100C30008281882309F497C00E94D00C94C0C533E8
:100C4000D04789F6F8018281882309F48CC00E947C
:100C5000C60C89C0CA33F0E7DF0741F4F80182818E
:100C6000882309F480C00E941D0C7DC0CB3380E72F
:100C7000D807D8F4F8018281C833F0E7DF0731F4F0
:100C8000882309F470C00E94E80B6DC0C933D047B7
:100C900030F4882309F467C00E94C90B64C088231C
:100CA00009F461C00E94030C5EC0CC33E0E7DE07AC
:100CB00019F5F8018281882351F0109236010E94C3
:100CC000B01B909335018093340182E02AC080915B
:100CD000360181110FC080913401909135010E943D
:100CE000BC1B883C910530F486E20E946C1086E2C1
:100CF0000E94341182E01DC0CC33F0E7DF07E0F042
:100D0000CD33D04709F06FCFF8018281882361F09D
:100D1000109237010E94B01B9093350180933401EB
:100D200080E20E9483111FC080913701882359F00F
:100D300080E20E948A1117C0F8018281882399F00D
:100D40000E94380C10C080913401909135010E94AE
:100D5000BC1B883C910560F787E20E946C1087E21B
:100D60000E943411E5CF80E0DF91CF911F910F9168
:100D7000FF9008950C9426090C9428090C943905C9
:100D80000C94BE0680E090E00895089524E2829FCE
:100D9000C0011124FC0126E0729FE00DF11D112419
:100DA000E60FF11DEE0FFF1FE65BFE4F859194915C
:100DB0000895880F991FFC01E653FA4F859194918D
:100DC00008950E94C6060E945A08811520E49207E1
:100DD000B0F5811540E3940708F0DEC0803E910530
:100DE000D8F4803C910508F06CC0883A910578F4FD
:100DF000853A910508F068C08130910509F459C120
:100E000008F410C18430910508F053C10BC18D3B2B
:100E1000910508F464C006C18F3F910509F048F4BC
:100E2000803F910508F0B2C0883E910508F441C1A9
:100E3000F9C0811520E2920708F0AAC00895811533
:100E400043E5940790F4811522E5920708F0C9C0A4
:100E5000811541E5940708F0BFC0811520E5920790
:100E600008F09DC09F70906A0895811545E594072C
:100E7000D8F4811524E5920708F0C9C09C012370BD
:100E8000332741E050E002C0440F551F2A95E2F796
:100E9000282F2695269580E2289F90011124CA01CB
:100EA000822B932B9A680895811546E5940708F4E0
:100EB000B3C09C0130562115304108F0B3C09F707B
:100EC000AFC0805C910965C0853A910509F4ADC059
:100ED000863A910509F0ACC082E890E40895883A1A
:100EE000910509F4A8C0893A910509F4A7C08A3A86
:100EF000910509F4A6C08B3A910509F4A5C08C3A76
:100F0000910509F4A4C08B3B910509F4A3C08C3B67
:100F1000910509F4A2C08D3A910509F4A1C0803B66
:100F2000910509F4A0C08E3A910509F49FC08F3A4B
:100F3000910509F49EC0813B910509F49DC0823B57
:100F4000910509F49CC0833B910509F49BC0843B47
:100F5000910509F49AC0853B910509F499C0863B37
:100F6000910509F498C0873B910509F497C0883B27
:100F7000910509F496C0893B910509F495C08A3B17
:100F8000910509F494C080E094E408959065089573
:100F90009F700E94D90608959927906C08959C012E
:100FA00054E0369527955A95E1F7922F9370482F84
:100FB000437021E030E002C0220F331F4A95E2F770
:100FC0003C68392B8F708695869540E2849FC001DE
:100FD0001124822B932B0895982F8827816F906A74
:100FE00008959C012370332741E050E002C0440F74
:100FF000551F2A95E2F7282F2695269580E2289FEF
:1010000090011124CA01822B932B9C680895982F7C
:101010008827846F906A08958F719927982F882761
:101020009062089580E090E0089581E890E408954A
:1010300083E890E4089582EE94E4089589EE94E4C0
:1010400008958AEE94E4089585EB94E4089586EB80
:1010500094E4089583EB94E4089584EB94E4089574
:1010600087EB94E408958CEC94E408958DEC94E47B
:10107000089583E895E408958AE895E4089582E95F
:1010800095E4089584E995E4089581E296E408954D
:1010900083E296E4089584E296E4089585E296E476
:1010A000089586E296E4089587E296E408958AE238
:1010B00096E408958238910549F1B0F481339105A1
:1010C00009F459C048F48932910509F44FC08A32B5
:1010D000910509F455C008958533910509F441C07F
:1010E0008933910599F00895833E910531F138F4E3
:1010F000803E910591F0823E9105A9F00895863ECB
:10110000910501F1873E910539F10895209137024B
:1011100020FD3BC021FD39C008958091370280FF3A
:1011200034C089E341C08091370282FF30C0809192
:10113000370284FD2EC083EE37C08091370282FDD6
:1011400026C0F5CF8091370283FF25C080913702FA
:1011500084FD1FC087EE28C08091370283FD1BC02D
:10116000F5CF8091370285FD18C019C080913702F4
:1011700085FD15C012C08091370286FD12C013C0D4
:101180008091370286FD0FC00CC080EE0DC082EE4C
:101190000BC080E009C086EE07C089E205C085E388
:1011A00003C08AE201C081E390E0089508950F939F
:1011B0001F93CF93FB012281211102C0C1E041C0E6
:1011C0008C01C0914501C11125C085319047B1F70F
:1011D0000E94D60881E0809345010E94B01B909345
:1011E0004401809343011092380110923A01109209
:1011F000390110923C0110923B0110923E01109275
:101200003D011092400110923F0110924201109254
:10121000410117C080914301909144010E94BC1B81
:10122000883C910558F690913801E92FF0E0EE0FD7
:10123000FF1FE75CFE4F118300839F5F909338018F
:10124000C0E08C2FCF911F910F9108950C9437051A
:101250000C943805CF93DF9385B7806885BF85B739
:10126000806885BFAAE1B1E040E251E061E070E052
:101270008D91E82FE295EF70F0E021A18F70EB01E6
:1012800002C0CC0FDD1F8A95E2F7CE019C2F90950E
:10129000922391A392A1892B82A34A175B0741F75E
:1012A000A4E1B1E04AE151E061E070E08D91E82F06
:1012B000E295EF70F0E021A18F70EB0102C0CC0F3E
:1012C000DD1F8A95E2F7CE019C2F9095922391A382
:1012D00092A1892B82A34A175B0741F7ECE4F1E066
:1012E000A6E4B1E082E591E011921D928E179F076E
:1012F000D9F7DF91CF910C94BA064F925F926F921B
:101300007F928F929F92AF92BF92CF92DF92EF9295
:10131000FF920F931F93CF93DF932AE1C22E21E018
:10132000D22E06E411E0E801EE24E394F12CBB2474
:10133000B394BE0198801882D6018D916D01E82F7B
:10134000E295EF70F0E021A18F70A70102C0440F79
:10135000551F8A95E2F7CA01242B21A322A1A42EAE
:10136000A0942A2122A350EA5A95F1F794E1492E3C
:1013700091E0592E20E030E0D2018D902D01482DD2
:1013800042954F7050E0DA0190966C907880582D1D
:101390005F70D70102C0AA0FBB1F5A95E2F7AD01DB
:1013A000562D542341F45E2D022E01C0550F0A9490
:1013B000EAF7452F01C040E0472948832F5F3F4FA0
:1013C00026303105C9F691A1A922A1A292A1892BAB
:1013D00082A32196FB018081981641F0B0925201C0
:1013E0000E94B01B9093540180935301F1E0CC34E0
:1013F000DF0709F09ECF809152018823A1F08091F0
:101400005301909154010E94BC1B069760F0ECE4DC
:10141000F1E0D8018D918D018193B1E00C341B076F
:10142000C1F7109252010E94BC0681E0DF91CF917A
:101430001F910F91FF90EF90DF90CF90BF90AF90F2
:101440009F908F907F906F905F904F900895E82FBE
:10145000F0E0E45BFE4F8081089508952BB1342FB6
:10146000309523233BB1432B3FB7F894FC01680F21
:10147000791FE617F70789F0819198E04BB90000D2
:1014800000C087FF2BB9880F000000C000C000C05B
:101490002BB900C09A9591F7ECCF3FBF08952AB1C0
:1014A000242B2AB99B01220F331F620F731F0E9446
:1014B0002E0A87EC90E00197F1F700C00000089534
:1014C00041E00C944F0AEF92FF920F931F93CF933A
:1014D000DF93E901662309F44BC0242F30E0EFEFDE
:1014E000F0E0E61BF109B901E69F9001E79F300D9E
:1014F000F69F300D1124232F8B01031B11095CE390
:10150000E52EF12CB7010E94EF27FB01BC01069FDD
:10151000C001079F900D169F900D1124B7010E94E6
:10152000EF27E230F105B1F040F4309779F03197D0
:1015300011F5832F242F461B21C0E430F105A1F0C3
:1015400068F03597C1F4842F861B18C0832F262F8F
:10155000230F14C0862F830FE42F03C0E42FE61B54
:10156000842F432F2E2F0AC0842F462F430F06C0EF
:10157000842F242F03C080E020E040E0E42FF0E03F
:10158000E952F94F4491E22FF0E0E952F94F94917A
:10159000E82FF0E0E952F94FE49149839883EA8318
:1015A000DF91CF911F910F91FF90EF90089588E008
:1015B00090E00C942528AB01BC0188E090E00C94ED
:1015C0004328E5E2F2E083E08083109226028FEF69
:1015D0008283838360912502709126028091270285
:1015E000909128020C94DB0A8091250280FD0CC0AA
:1015F00010922E0210922D0210922F0210923102A0
:10160000109230021092320262E070E08DE292E0BD
:101610000C94600AEDE2F2E081836083428384836C
:10162000638345830C94F40AEF92FF920F931F9308
:10163000CF93DF9300D01F92CDB7DEB70091250284
:10164000109126022091270230912802009329024E
:1016500010932A0220932B0230932C022091250212
:1016600020FF21C0042FF62EE92E182F9E012F5F98
:101670003F4F0E94630A8091290210FB87F98093F3
:101680002902169580912A028078182BE0FA17F922
:1016900010932A02F0922B0200932C024B81698155
:1016A0008A810E940A0B0F900F900F90DF91CF91CB
:1016B0001F910F91FF90EF9008950F931F93CF9379
:1016C000DF93EC01062F142F9091250290FF44C068
:1016D000892F8E77823021F4CE010E94140B1BC01B
:1016E000892F86958F732EE3280F2F73243018F4DB
:1016F0001091280210C0865C8F73893060F4C92F66
:10170000CC1FCC27CC1FD09126028D2F880FC82B41
:10171000D7FBDD27D0F980912502C0FB87F98093A4
:101720002502C695809126028078C82BD0FBC7F988
:10173000C09326020093270210932802609125028D
:10174000709126028091270290912802DF91CF911B
:101750001F910F910C94DB0ADF91CF911F910F9194
:101760000895E5E2F2E02081221F2227221F309116
:101770002602432F440F842F822B37FB992790F9A1
:10178000089668E671E00E940328438162810C9408
:101790005D0B20912502221F2227221F3091260255
:1017A000432F440F842F822B37FB992790F98830E1
:1017B00091051CF4805A9E4F05C0089768E671E0B9
:1017C0000E94032840912802609127020C945D0B2F
:1017D00060912702862F90E0883F910514F4685F9E
:1017E00001C06FEF80912502881F8827881F909184
:1017F0002602292F220F97FB992790F94091280262
:10180000822B0C945D0B60912702862F90E0089745
:1018100014F0685001C060E080912502881F88277D
:10182000881F90912602292F220F97FB992790F964
:1018300040912802822B0C945D0B40912802842F4A
:1018400090E0883F910514F4485F01C04FEF80910C
:101850002502881F8827881F90912602292F220F92
:1018600097FB992790F960912702822B0C945D0BCE
:1018700040912802842F90E0089714F0485001C04E
:1018800040E080912502881F8827881F90912602BA
:10189000292F220F97FB992790F960912702822B1D
:1018A0000C945D0B9091250290FF3BC091788111C3
:1018B00002C0926007C0893110F0906303C08F733B
:1018C000880F982B90932502609125027091260233
:1018D00080912702909128020E94DB0A80912502C4
:1018E000982F9E77923019F410926A0109C0982FB0
:1018F0009695925C9F73963118F491E090936A01EB
:10190000881F8827881F90912602292F220F97FB76
:10191000992790F94091280260912702822B0C941C
:101920005D0B08958091F80181608093F80181E05A
:1019300080936B010E940F1B811104C00E94EE1A5C
:101940000E94E10A0E94D70A609325027093260242
:1019500080932702909328026E7761F40E94E10A37
:101960000E94D70A60932502709326028093270273
:101970009093280281E080936A018091250280FF84
:1019800004C086958F730C94520C089580912502A3
:1019900086958F738F5F893108F081E00C94520C2B
:1019A00080912502982F909590FB80F980932502D5
:1019B0006091250270912602809127029091280261
:1019C0000E94DB0A8091250280FF04C086958F73F8
:1019D0000C94520C10926A012FEF80E792E0215094
:1019E00080409040E1F700C000000C94F40ACF93CF
:1019F000C82F80916801909169010E94BC1BEC2F57
:101A0000F0E0ED52FA4FE491F0E08E179F0718F1E5
:101A10000E94B01B9093690180936801E091670177
:101A2000F0E0E952FA4F449180912502881F8827FF
:101A3000881F90912602292F220F97FB992790F952
:101A400060912702822B0E94140B8091670190E025
:101A5000019680936701CF910895CF93C82F80910D
:101A60006501909166010E94BC1BEC2FF0E0E053F1
:101A7000FA4FE491F0E08E179F07E8F00E94B01B48
:101A8000909366018093650140912802609127023E
:101A900080916301909164010E94140B8091630115
:101AA00090916401019668E671E00E94EF2790939F
:101AB000640180936301CF910895FF920F931F9368
:101AC000CF93DF93F82E80916101909162010E9483
:101AD000BC1BEF2DE695F0E0E053FA4FE491F0E007
:101AE0008E179F07C0F10E94B01B909362018093F4
:101AF0006101C0915F01D091600108E611E0CE0163
:101B0000B8010E94EF272DE232E040912802609157
:101B100027020E94630ACE018C549F4FB8010E9495
:101B2000EF2720E332E040912802609127020E94D3
:101B3000630A0E94F40A80915F0190916001F0FEB7
:101B400005C00196B8010E94EF2701C0019790934C
:101B5000600180935F01DF91CF911F910F91FF9002
:101B60000895AF92BF92CF92DF92EF92FF920F93C0
:101B70001F93CF93DF93C82F80FF02C01FEF01C0D8
:101B800011E080915D0190915E010E94BC1BC695A1
:101B9000EC2FF0E0E353FA4FE491F0E08E179F074B
:101BA00008F45CC00E94B01B90935E0180935D01BD
:101BB000CDE2D2E0E12CF12C97E0C92ED12C198294
:101BC00018821A8287E0A82EB12C00E080915C0177
:101BD000800F87FD8E5F082E000C990BE816F90622
:101BE000E9F4209128022A9DC0012B9D900D11241B
:101BF000B6010E940328462F80912502881F88275E
:101C0000881F90912602592F550F97FB992790F91D
:101C10009E0160912702852B0E94630A010F81E0DB
:101C2000A81AB10899F68FEFE81AF80A239682E00D
:101C3000E816F10421F60E94F40A80915C0111304B
:101C400039F4811103C010935C0108C0815004C0B5
:101C500090E001968170992780935C01DF91CF918C
:101C60001F910F91FF90EF90DF90CF90BF90AF90BA
:101C70000895DF92EF92FF920F931F93CF93DF931C
:101C800000D000D000D0CDB7DEB7182F80915A0118
:101C900090915B010E94BC1BE12FF0E0E653FA4FEC
:101CA000E491F0E08E179F0708F474C00E94B01B07
:101CB00090935B0180935A018E010F5F1F4FE12CBF
:101CC000F12CF801118210821282D12C9091000126
:101CD00080915901D99E800D112487FD04C0823066
:101CE0001CF081E001C080E0082E000C990BE81682
:101CF000F906A1F480912502881F8827881F9091FA
:101D00002602592F550F97FB992790F9980140917A
:101D1000280260912702852B0E94630AD394F7E082
:101D2000DF12D4CF8FEFE81AF80A0D5F1F4FE2E001
:101D3000EE16F10431F68D8180932E028C81809312
:101D40002D028E8180932F028A81809331028981B6
:101D5000809330028B81809332020E94F40A90912A
:101D6000000180915901913049F48A3F2CF489EFA8
:101D7000809359018FEF08C081500AC089303CF030
:101D800088E08093590181E08093000103C08F5F58
:101D90008093590126960FB6F894DEBF0FBECDBFD3
:101DA000DF91CF911F910F91FF90EF90DF900895F9
:101DB00080915701909158010E94BC1B883E93402E
:101DC00038F10E94B01B9093580180935701809185
:101DD0005501909156010196817099279093560173
:101DE000809355012DE232E0409128026091270254
:101DF00080E090E00E94630A20E332E040912802F4
:101E00006091270280E090E00E94630A0C94F40A3B
:101E1000089580916A01882371F180912502869549
:101E20008F739EE3980F9F73943018F482500C9434
:101E3000F70C9AE3980F9F73933018F486500C9424
:101E40002D0D97E3980F9F73963018F489500C94DA
:101E50005D0D91E3980F9F73963018F48F500C949A
:101E6000B10D9BE2980F9F73933018F485510C9439
:101E7000390E0C94D80E08959093710180937001DF
:101E80000895E0917001F0917101309721F0019077
:101E9000F081E02D099480E00895E0917001F091C7
:101EA0007101309721F00280F381E02D09940895AB
:101EB000E0917001F0917101309721F00480F5817B
:101EC000E02D0994089520916E0130916F0128173B
:101ED000390771F090936F0180936E01E09170016A
:101EE000F0917101309721F00680F781E02D09947F
:101EF000089520916C0130916D012817390771F018
:101F000090936D0180936C01E0917001F0917101EB
:101F1000309721F00084F185E02D0994089508950B
:101F20000C948F0F0E94A71B0E942A090E94711C0B
:101F30000C94920CBF92CF92DF92EF92FF920F938C
:101F40001F93CF93DF93CDB7DEB72A970FB6F894E0
:101F5000DEBF0FBECDBF0E947D0983E7C82E81E0A2
:101F6000D82E00E010E0B02E802F0E94270AE82E25
:101F7000F60121916F01F82EF226B1F40F5F1F4F89
:101F80000630110581F78FEF89838A831B820E94B7
:101F9000B01B8160782F9D838C8349815A816B812E
:101FA0008D810E943E103DC08091F80181FD0E940C
:101FB0002D0A80E090E02F2D30E0482FB901082E47
:101FC00002C0759567950A94E2F760FF25C08E837D
:101FD000BF8281E090E06C0102C0CC0CDD1C4A9510
:101FE000E2F72E2D30E02C213D21232B09F480E057
:101FF00088870E94B01B8160782F9A8789874E81DD
:102000005F8168858A850E943E10F801ED58FE4F79
:1020100080818C25808305C001968630910569F604
:10202000ADCF0E94141F0E94410F90917201891739
:10203000A9F00E94410F809372012A960FB6F8947E
:10204000DEBF0FBECDBFDF91CF911F910F91FF90EB
:10205000EF90DF90CF90BF900C94C0062A960FB6F9
:10206000F894DEBF0FBECDBFDF91CF911F910F91CE
:10207000FF90EF90DF90CF90BF900895CF93DF93C4
:10208000CDB7DEB72B970FB6F894DEBF0FBECDBF2E
:102090004F83588769877A878B87DE01119686E0A0
:1020A000FD0111928A95E9F785E0FE0137960190CE
:1020B0000D928A95E1F749815A816B817C818D81EE
:1020C0009E810E949C162B960FB6F894DEBF0FBE21
:1020D000CDBFDF91CF910895882309F4C4C0823821
:1020E00059F40E94410F81FDBEC089E30E94F81996
:1020F0000E94BF1A89E30CC0833871F40E94410F1B
:1021000080FDB1C083E50E94F8190E94BF1A83E5E3
:102110000E94371A0C94BF1A843859F40E94410F58
:1021200082FDA1C087E40E94F8190E94BF1A87E4CB
:10213000EFCF9CEF980F913A18F40E94F819EACF6C
:1021400090E2980F983050F4877091E001C0990F99
:102150008A95EAF7892F0E94781ADCCF9BE5980FC1
:10216000933070F4853A29F0863A31F083E890E0B4
:1021700005C081E890E002C082E890E00C94630F13
:1021800098E5980F953108F06EC0883A61F1893A68
:1021900069F18A3A71F18B3A79F18C3A81F18B3B92
:1021A00089F18C3B91F18D3A99F1803BA1F18E3A06
:1021B000A9F18F3AB1F1813BB9F1823BC1F1833B87
:1021C000C9F1843BD1F1853BD9F1863BE1F1873BF5
:1021D000E9F1883BF1F1893BF9F18A3B09F43FC011
:1021E00080E090E03EC082EE90E03BC089EE90E05F
:1021F00038C08AEE90E035C085EB90E032C086EBC7
:1022000090E02FC083EB90E02CC084EB90E029C0DD
:1022100087EB90E026C08CEC90E023C08DEC90E042
:1022200020C083E891E01DC08AE891E01AC082E9ED
:1022300091E017C084E991E014C081E292E011C0FE
:1022400083E292E00EC084E292E00BC085E292E06D
:1022500008C086E292E005C087E292E002C08AE20E
:1022600092E00C94790F0895882309F44BC08238CA
:1022700059F40E94410F81FF45C089E30E94F8197B
:102280000E94BF1A89E30CC0833871F40E94410F89
:1022900080FF38C083E50E94F8190E94BF1A83E5C9
:1022A0000E94371A0C94BF1A843859F40E94410FC7
:1022B00082FF28C087E40E94F8190E94BF1A87E4B1
:1022C000EFCF9CEF980F913A58F390E2980F983027
:1022D00050F4877091E001C0990F8A95EAF7892F31
:1022E0000E947E1ADFCF9BE5980F933020F480E0A8
:1022F00090E00C94630F885A853120F480E090E0E0
:102300000C94790F0895882321F00E94781A0C9478
:10231000BF1A0895882321F00E947E1A0C94BF1AD8
:1023200008958F929F92AF92BF92DF92EF92FF92A9
:102330000F931F93CF93DF937C01D62FC72FFC0100
:10234000058102950F70128111110E94951A0E9449
:10235000F119882379F0112369F080E28D0F88301C
:1023600048F082E00E94DA190E94F11991E0D82E1B
:10237000D92601C0D12CEC2FE295EF708E2F90E082
:10238000FC01E859FF4F0C9417288C2F807FCF70E9
:10239000882311F0C295C07F112399F0CC2309F452
:1023A00086C180E28D0F883010F0D11104C08C2FCF
:1023B0000E94781A03C08C2F0E94881A0E94BF1AAC
:1023C00076C18D2F0E943411CC2309F489C180E29B
:1023D0008D0F883010F0D11104C08C2F0E947E1A0E
:1023E00003C08C2F0E948E1A0E94BF1A79C18C2FB5
:1023F000807FCF70803211F0C295C07FDD2319F04D
:10240000D13099F01CC0112341F0002311F18C2F21
:10241000013001F50E94A81A63C1002319F00130B0
:1024200009F45EC10E94AB1A1AC0112321F00630D4
:1024300008F056C10EC0053008F052C110C011237B
:1024400061F0002331F0F701858180FF30C18F708A
:1024500085838C2F0E94831143C101112EC18C2FC3
:10246000E5C08C2F86958695837019F0813061F0D8
:1024700037C1112321F08D2F9C2F937002C080E073
:1024800090E00E94630F2CC1112321F08D2F9C2F0F
:10249000937002C080E090E00E94790F21C18D2FDF
:1024A000112319F00E941C1E02C00E94841E0E946B
:1024B000091F16C18C2F837009F04CC0111110C177
:1024C0002D2F229526952770220F220F6D2F6F70CA
:1024D000862F90E0A0E0B0E04C015D01022E04C028
:1024E000880C991CAA1CBB1C0A94D2F7D4FF12C0FA
:1024F0008FE090E0A0E0B0E004C0880F991FAA1F11
:10250000BB1F2A95D2F7BC01CD01609570958095CF
:10251000909503C060E070E0CB01C695C695C3708E
:10252000C23051F080F4682979298A299B29C13069
:1025300071F00E94EE17D4C0682979298A299B2955
:102540000E940A18CDC00E94EE17C501B4010E9476
:10255000D217C6C0112319F08C2F817001C0869547
:10256000882309F4BDC02D2F229526952770220FB0
:10257000220F6D2F6F70862F90E0A0E0B0E04C012D
:102580005D01022E04C0880C991CAA1CBB1C0A9475
:10259000D2F7D4FF12C08FE090E0A0E0B0E004C01A
:1025A000880F991FAA1FBB1F2A95D2F7BC01CD0126
:1025B000609570958095909503C060E070E0CB01C8
:1025C000C695C695C370C23051F080F46829792948
:1025D0008A299B29C13071F00E94C81881C06829DE
:1025E00079298A299B290E94E4187AC00E94C81878
:1025F000C501B4010E94AC1873C08D2F90E0FC019E
:10260000E05EF109E531F10508F04DC0E858FF4FF3
:102610000C941728DF708C2F8F71112321F00E94EA
:1026200045188D2F17CF0E9466188D2F0E948A1192
:1026300057C0112341F0053008F052C08C2F8F7124
:102640000E948B184DC0063008F04AC0F7CF112306
:1026500039F08C2F8F710E94451842C01123C9F3A5
:102660008C2F8F710E9466183BC0112329F08C2F8C
:102670008F710E94301834C00E94261831C0112377
:1026800049F0CF718C2F0E94451863E08C2F0E9477
:10269000D11926C081E00E94DA19023008F182E0E7
:1026A0000E94DA191DC0112331F0002391F28D2F01
:1026B0000E946C1015C0002399F28D2F0E943411D6
:1026C0000FC04C2F4F706D2FC7010E94C2060E9491
:1026D0004A1706C04C2F4F706D2FC7010E94C506C8
:1026E000DD20E1F00E94CD1980FD18C0F7011282B3
:1026F0000E94C7190E944518C7010E949A130E94A0
:10270000C719DF91CF911F910F91FF90EF90DF904C
:10271000BF90AF909F908F900C946618DF91CF91EF
:102720001F910F91FF90EF90DF90BF90AF909F901F
:102730008F9008950F931F93CF93DF93EC019881AF
:1027400089812B813C81232B31F08F3F31F481E053
:102750009F3F19F403C081E001C080E080FD13C0F9
:10276000CE010E944B05882371F0688179818A81AE
:102770000E94A4198C010E9400190E94C717B80179
:10278000CE010E949111DF91CF911F910F91089579
:102790000E94951A0E94A51A0E946A1A0E94BF1AE6
:1027A0000E94B91F0E94091F80E090E00E94630F01
:1027B00080E090E00C94790F0E94851A0C94C81365
:1027C0000E949919E92FE295EF704E2F50E0FA011F
:1027D0003297EE30F105B0F4E357FF4F0C94172811
:1027E000803F91F018F4803E68F40EC0843F51F4AD
:1027F0000BC0803E48F0813F29F406C093FB882738
:1028000080F9089580E0089581E00895CF93DF93E3
:1028100000D000D01F92CDB7DEB70F900F900F9071
:102820000F900F90DF91CF910895CF93DF9300D059
:1028300000D000D0CDB7DEB726960FB6F894DEBF35
:102840000FBECDBFDF91CF9108951F93CF93DF933C
:10285000C0917A0116E080917B01C81799F0D0E011
:102860001C9FF0011D9FF00D1124E458FE4F408184
:10287000518162817381848195810E941514219612
:10288000C770E9CFDF91CF911F9108954091AC01BE
:102890005091AD016091AE017091AF018091B00196
:1028A0009091B1010C941514CF938091B101829550
:1028B0008F7009F05FC08091AE01882309F45AC07F
:1028C00080917A01B0917B017091AC01A091AD0132
:1028D0004091AF015091B00191E07F3F09F090E04D
:1028E000692FC6E08B1709F445C04115510521F049
:1028F000AF3F21F020E003C021E001C0262F90E08F
:1029000020FD35C0C89FF001C99FF00D1124E45887
:10291000FE4F21812A132BC02081271328C022813A
:10292000211125C0238134812417350710F421504B
:102930003109241B350B283C3105C8F42091B10125
:102940002F7020612093B10126E0289FF001299F7C
:10295000F00D1124EF57FE4F80818F7080618083CE
:102960008CEA91E00E949A13CF910C942514019661
:102970008770B8CFCF910895AF92BF92CF92DF9278
:10298000EF92FF920F931F93CF93DF93CDB7DEB7F4
:1029900061970FB6F894DEBF0FBECDBF8C0185E006
:1029A000F801DE011D9601900D928A95E1F7D8019C
:1029B0004C9111965C9111971296EC903091AC016C
:1029C0006091AD018091AF019091B001009731F01D
:1029D0006F3F31F421E03F3F19F403C021E001C013
:1029E00020E0B22FB170BB2E20FD64C1F801C3807E
:1029F000D480A090AE01AA2009F4C3C02091B101F7
:102A0000C816D90628F0D601A81BB90BCD0104C001
:102A1000809590958C0D9D1DFF24F394883C910525
:102A200080F0F12C207F09F09CC07C2DD98AC88AC7
:102A30006E2D89890E9406148CEA91E00E949A13F7
:102A4000B4C0822F807F09F054C0561314C04313C2
:102A500012C0FE2CE1100FC02F7020612093B10135
:102A60000E9446148CEA91E00E949A138091B10171
:102A7000F80185834FC1CD2831F05F3F31F481E00B
:102A80004F3F19F403C081E001C080E080FD03C026
:102A900081E08E2502C080E090E0F82FF170FF2EDB
:102AA00080FF1CC080917A0120917B0136E0821763
:102AB00009F40DC190E0389FF001399FF00D112409
:102AC000E458FE4F6181561306C06081461303C06F
:102AD0006281E61203C001968770E9CFFE2CEE20DA
:102AE00009F418C18091B10181608093B101F12C8A
:102AF00011C1561309C0431307C0E11005C08091EE
:102B0000B101F8018583B0C04D875E878D859E85B4
:102B10000E94E013882379F1EE2069F12091B10140
:102B2000822F82958F7090E0029774F08091AC01B3
:102B30009091AD0198878F831986DB86CA862C8792
:102B4000CE0107960E949A1386E0F801ACEAB1E044
:102B500001900D928A95E1F70E9454140E94461448
:102B60000DC0561761F14D875E878D859E850E9449
:102B7000E013811138C0C8010E949A13FF24F39416
:102B8000C9C0C816D90608F446C0F601E81BF90BFF
:102B9000CF01883C910508F443C0F12C7C2DD98AE3
:102BA000C88A6E2D89890E940614ECEAF1E086E05D
:102BB000DF011D928A95E9F70E944614ABC04313CA
:102BC000D2CFE110D0CF8091B101F8018583C80147
:102BD0000E949A1386E0ECEAF1E0DF011D928A95EB
:102BE000E9F7FA2C97C0EE2031F22091B101822F43
:102BF00082958F7090E002970CF4A6CF8091AC0183
:102C00009091AD019A8389831B82DD82CC822E83D1
:102C1000CE01019697CF809590958C0D9D1DB9CFD3
:102C2000FE2CEE2009F4A7CF561333C0431331C056
:102C30002091B10120FD24C0822F82958F70482FF2
:102C400050E041155105E1F0D80115962C931597E8
:102C50004F30510549F08F5F982F9295907F822FCA
:102C60008F70892B15968C93C8010E949A1386E069
:102C7000F801ACEAB1E001900D928A95E1F79CCFA2
:102C800086E0F801ACEAB1E001900D928A95E1F797
:102C900041C04D875E878D859E850E94E01381111E
:102CA00053CF8091B10181608093B101C8010E942E
:102CB0009A1330C0EE2009F45ECF4D875E878D8574
:102CC0009E850E94E013882309F455CF3DCF4D87A0
:102CD0005E878D859E850E949919292F22952F70D8
:102CE000223028F49F7039F0811105C00BC02430C8
:102CF00028F49F7049F4805E883020F0C8010E945B
:102D00009A13BF2CFB2C06C0D80115969C91907F7E
:102D100091F7F8CF8F2D61960FB6F894DEBF0FBEF6
:102D2000CDBFDF91CF911F910F91FF90EF90DF907A
:102D3000CF90BF90AF9008951F93CF93DF93CDB7FF
:102D4000DEB72C970FB6F894DEBF0FBECDBF4F8312
:102D5000588769877A878B879C87CE0107960E9460
:102D6000BC148823D1F09F8188852A853B85232B3D
:102D700031F08F3F31F481E09F3F19F403C081E0CF
:102D800001C080E080FD47C04F81588569857A8504
:102D90008B859C850E9415143EC086E0FE01379607
:102DA000DE01119601900D928A95E1F7FF81E88589
:102DB0006A857B856115710531F0EF3F31F481E063
:102DC000FF3F19F403C081E001C080E080FD23C013
:102DD00020917B0130E0C9010196877099274091CD
:102DE0007A0150E084179507F1F1F983EA837D8336
:102DF0006C8396E0929FD001939FB00D1124A4584C
:102E0000BE4FFE01319601900D929A95E1F78093A5
:102E10007B010E94251416E080917A0190917B013C
:102E2000891771F1189FC001112484589E4F0E9488
:102E3000BC14882329F1E0917A011E9FF00111242E
:102E4000E458FE4F40815181628173818481958174
:102E50000E94151480917A0190E00196877099275D
:102E600080937A01D9CF0E94DC1310927B011092DB
:102E70007A01ECEAF1E086E0DF011D928A95E9F73C
:102E80002C960FB6F894DEBF0FBECDBFDF91CF9169
:102E90001F910895EF92FF920F931F93CF93DF93AB
:102EA0008C01892B09F46CC0F12CEE24E394E80129
:102EB0002196F8018491843740F4843008F051C0A1
:102EC000813081F0823019F15BC0853709F444C04C
:102ED000A8F19CE7980F903708F052C08F770E94B6
:102EE000341141C00E5F1F4FFE01849190E2980F94
:102EF000983050F48770FE2D01C0FF0F8A95EAF7D5
:102F00008F2F0E94981A14C00E946C102DC00E5F63
:102F10001F4FFE01849190E2980F983060F4877003
:102F2000FE2D01C0FF0F8A95EAF78F2F0E949E1A8F
:102F30000E94BF1A19C00E94341116C00E5F1F4FA5
:102F4000FE01C491CC2381F08FE99FE00197F1F756
:102F500000C00000C150F6CF0E5F1F4FFE01F4907D
:102F600003C00E946C108E018F2D882309F49FCF1F
:102F7000EFE9FFE03197F1F700C000008150F5CF95
:102F8000DF91CF911F910F91FF90EF9008950895D9
:102F90006093CF017093D0018093D1019093D201BF
:102FA0000C94C8130F931F930091CF011091D0017F
:102FB0002091D1013091D201DC01CB01802B912BEA
:102FC000A22BB32B8093CF019093D001A093D1017A
:102FD000B093D2011F910F910C94C8130F931F93BC
:102FE0000091CF011091D0012091D1013091D201F7
:102FF000DC01CB0180239123A223B3238093CF0153
:103000009093D001A093D101B093D2011F910F9161
:103010000C94C8130F931F930091CF011091D0010E
:103020002091D1013091D201DC01CB018027912781
:10303000A227B3278093CF019093D001A093D10111
:10304000B093D2011F910F910C94C8131092CB0131
:103050001092CC011092CD011092CE010C94C813A5
:1030600041E050E060E070E004C0440F551F661F6F
:10307000771F8A95D2F74093CB015093CC01609390
:10308000CD017093CE010C94C81341E050E060E094
:1030900070E004C0440F551F661F771F8A95D2F752
:1030A0008091CB019091CC01A091CD01B091CE0146
:1030B000482B592B6A2B7B2B4093CB015093CC018F
:1030C0006093CD017093CE010C94C81341E050E0A1
:1030D00060E070E004C0440F551F661F771F8A959B
:1030E000D2F740955095609570958091CB01909165
:1030F000CC01A091CD01B091CE01482359236A2380
:103100007B234093CB015093CC016093CD0170930E
:10311000CE010C94C81341E050E060E070E004C0C0
:10312000440F551F661F771F8A95D2F78091CB01F8
:103130009091CC01A091CD01B091CE0148275927A3
:103140006A277B274093CB015093CC016093CD013C
:103150007093CE010C94C8130F931F930091CB0171
:103160001091CC012091CD013091CE01DC01CB0139
:10317000802B912BA22BB32B8093CB019093CC016E
:10318000A093CD01B093CE011F910F910C94C81361
:103190000F931F930091CB011091CC012091CD0191
:1031A0003091CE01DC01CB0180239123A223B323F4
:1031B0008093CB019093CC01A093CD01B093CE012D
:1031C0001F910F910C94C8130F931F930091CB0183
:1031D0001091CC012091CD013091CE01DC01CB01C9
:1031E00080279127A227B3278093CB019093CC010E
:1031F000A093CD01B093CE011F910F910C94C813F1
:103200000895292F220F920F990F890FE82FE69525
:10321000E695E695877051E001C0550F8A95EAF76B
:1032200085E0E89FF0011124EE54FE4F20E030E0ED
:1032300070E04081CB01022E02C0969587950A94DA
:10324000E2F78170819584278523842781932F5FFE
:103250003F4F2530310569F70895292F220F920F2E
:10326000990F890F682F669566956695982F9770C8
:1032700085E0689FB001112440E050E080E0FB0150
:10328000E40FF51FEE54FE4F208130E0092E02C0FE
:10329000369527950A94E2F721703327042E01C052
:1032A000220F0A94EAF7822B4F5F5F4F453051059A
:1032B00031F70895CF92DF92EF92FF920F931F9311
:1032C000CF93DF938C01C090CB01D090CC01E090E4
:1032D000CD01F090CE018091CF019091D001A091CD
:1032E000D101B091D201C82AD92AEA2AFB2ACFE11A
:1032F000D0E0D701C6010C2E04C0B695A7959795CE
:1033000087950A94D2F780FD04C0219790F780E05A
:1033100007C0B8018C2F0E94E1060197B1F38C2FF2
:10332000DF91CF911F910F91FF90EF90DF90CF90A1
:103330000895CF93DF93EC010E945A19BE010E94B9
:10334000E106DF91CF9108951F93CF93DF93EB01B7
:1033500090917901992321F0CB010E94991913C012
:10336000882349F0CB010E945A19182F682FCE01EB
:103370000E94011904C0CB010E942D19182FBE0113
:10338000812F0E94E106DF91CF911F9108958091D6
:10339000D30185958595859508958091D301877092
:1033A000089598E0899F90011124262B2093D30142
:1033B0000C9445182091D301809582238093D301EA
:1033C000982F977069F430E0482F082E000C550BA9
:1033D0002417350729F08595859585950C946618F1
:1033E00008959091D301977081E009F480E00895E9
:1033F000909113019923F1F09091370297FF1AC031
:10340000982F9695969596959F3181F1E0910101BF
:10341000F0910201E90FF11D877021E030E0A90170
:1034200002C0440F551F8A95E2F7CA019181892B8A
:10343000818308952091010130910201F9013296B2
:103440009FEF40E05191851789F09F3F19F451118A
:1034500001C0942F4F5F4E31A9F79F3F39F0F9011A
:10346000E90FF11D97FDFA958283089508959091D3
:1034700013019923F9F09091370297FF1BC0982F01
:103480009695969596959F3121F1E0910101F091E5
:103490000201E90FF11D877021E030E0A90102C0AF
:1034A000440F551F8A95E2F7CA01809591818923BF
:1034B00081830895E0910101F09102019F01225E54
:1034C0003F4F9281891301C012823196E217F307B0
:1034D000C1F7089581E090E0E0910101F0910201CF
:1034E000E80FF91F1082019680329105A9F708951F
:1034F0009091F701892B8093F70108958095909121
:10350000F70189238093F70108951092F701089538
:103510009091F601892B8093F60108958095909102
:10352000F60189238093F60108951092F60108951B
:103530009091F501892B8093F501089580959091E4
:10354000F50189238093F50108951092F5010895FE
:103550008093D40108951092D401089580910101BF
:1035600090910201FC0131969C01205E3F4F80E06A
:10357000919191118F5FE217F307D1F70895E091D0
:103580000101F09102018091F7018083E091010136
:10359000F091020190818091F601892B8083E09166
:1035A0000101F091020190818091F501892B8083C6
:1035B0008091D401882361F0E0910101F091020132
:1035C0009081892B80830E94AE1A81111092D401C0
:1035D00080910101909102010C944D0F6DEE7EEFF0
:1035E00080E090E00E944F2860E082E090E00E943E
:1035F000312860E083E090E00E94312860E084E0C0
:1036000090E00E94312860E085E090E00E9431283F
:1036100040E050E0BA0188E090E00C94432880E05C
:1036200090E00E942B2821E08D3E9E4F09F020E083
:10363000822F089582E090E00C941D28682F82E08C
:1036400090E00C94312883E090E00C941D28682FC2
:1036500083E090E00C94312884E090E00C941D28E5
:10366000682F84E090E00C94312880913D028430F2
:1036700039F11092F90120E488E190E00FB6F89456
:10368000A895809360000FBE2093600080E00E94A8
:10369000C00683B7817F846083BF83B7816083BFA7
:1036A0007894889583B78E7F83BF0FB6F894A895DA
:1036B00080916000886180936000109260000FBE6E
:1036C000089508950C94611BCF930E94621B0E9481
:1036D0007D090E94611BC0E08C2F0E94270A811186
:1036E00004C0CF5FC630C1F701C081E0CF9108951B
:1036F0000E94DC130E94410F0C94C0061F920F928F
:103700000FB60F9211248F939F93AF93BF93809125
:10371000F901811113C08091330290913402A0917C
:103720003502B09136024196A11DB11D809333023E
:1037300090933402A0933502B0933602BF91AF91BB
:103740009F918F910F900FBE0F901F90189582E060
:1037500084BD93E095BD9AEF97BD80936E00089568
:103760002FB7F8948091330290913402A0913502E2
:10377000B09136022FBF0895CF92DF92EF92FF9261
:103780000F931F932FB7F894409133025091340256
:1037900060913502709136022FBF6A017B01EE24E1
:1037A000FF248C0120E030E0C016D106E206F306CB
:1037B00010F4415051099A01281B390BC9011F917E
:1037C0000F91FF90EF90DF90CF9008951F920F928E
:1037D0000FB60F9211248F939F93AF93BF93809155
:1037E000330290913402A0913502B09136020196D5
:1037F000A11DB11D8093330290933402A093350232
:10380000B0933602BF91AF919F918F910F900FBEF1
:103810000F901F9018950E94BB23F8942FEF87EA12
:1038200091E6215080409040E1F700C0000087E021
:1038300090EBDC018093460290934702A0934802EC
:10384000B09349029CE088E10FB6F894A895809364
:1038500060000FBE90936000FFCFCF92DF92EF9297
:10386000FF920F931F93CF93C0E0E82EF12C8C2F83
:103870000E94270A00E010E0C82ED12CC601002EBD
:1038800002C0959587950A94E2F780FD06C00F5F08
:103890001F4F0630110591F70AC0602F7C2F80E082
:1038A0000E94C606E816F90691F781E004C0CF5FD2
:1038B000C630E9F680E0CF911F910F91FF90EF9015
:1038C000DF90CF900895CF93C82F8CE20E942D1CDB
:1038D000882321F08C2FCF910C942D1C80E0CF9168
:1038E0000895CF930E940F1B811102C00E94EE1A0F
:1038F000C5E6C15049F00E947D098FE39CE901971C
:10390000F1F700C00000F5CF89E20E94631C81112D
:103910000FC18AE20E94631C81110E94EE1A85E0A9
:103920000E94631C81110E940B1C0E941A1B809331
:10393000F80187E00E94631C8823A9F18BE10E94B3
:10394000631C882351F08091F80181FB222720F924
:1039500091E0922790FB81F90EC08EE00E94631CDB
:10396000882361F08091F80182FB222720F991E001
:10397000922790FB82F98093F80115C080E10E94A4
:10398000631C9091F801882341F093FB222720F9D2
:1039900081E0822780FB93F904C0892F809580FB0A
:1039A00090F99093F8018091F8010E941E1B0E94EB
:1039B0002C1B90E0909338028093370280EE0E9497
:1039C000631C882341F080913702982F909590FBDB
:1039D00080F98093370289E30E94631C882359F0A1
:1039E0008091370281FB222720F991E0922790FBFA
:1039F00081F98093370282EE0E94631C882359F07C
:103A00008091370282FB222720F991E0922790FBD8
:103A100082F98093370286EE0E94631C882359F056
:103A20008091370283FB222720F991E0922790FBB7
:103A300083F98093370283EE0E94631C882359F038
:103A40008091370284FB222720F991E0922790FB96
:103A500084F98093370285E30E94631C882359F020
:103A60008091370285FB222720F991E0922790FB75
:103A700085F98093370281E30E94631C882359F003
:103A80008091370286FB222720F991E0922790FB54
:103A900086F98093370281E10E94631C882359F0E4
:103AA0008091370287FB222720F991E0922790FB33
:103AB00087F980933702809137020E94301B87E29A
:103AC0000E94631CC82F8EE10E94631C8111C2609A
:103AD0008FE10E94631C8111C46080E20E94631C1C
:103AE0008111C86081E20E94631C8111C06182E281
:103AF0000E94631C8111C06283E20E94631C8111D9
:103B0000C06484E20E94631C882311F0C06802C074
:103B1000CC2329F08C2F0E94271B6C2F03C00E94FE
:103B2000231B682F70E080E090E0CF910C94C817C1
:103B3000CF9108958091FC0180FF0BC06091060138
:103B400085E0689FB0011124759567957595679517
:103B50002BC081FF09C06091060185E0689FB0011C
:103B600011247595679520C082FF07C060910601FA
:103B700085E0689FB001112417C09091FD01992341
:103B8000D1F060910501961788F72091060185E034
:103B9000289F90011124929FA001939F500D112402
:103BA00070E0CA010E9403286038710540F4611575
:103BB000710519F406C065E070E0862F08958FE75F
:103BC000089581E008958091FC0180FF08C0609114
:103BD000040170E0759567957595679521C081FF23
:103BE00006C06091040170E07595679519C082FF69
:103BF00004C06091040170E010C09091FD01992310
:103C000099F0609103019617A0F780910401899FB4
:103C1000C001112470E00E9403286038710540F44F
:103C20006115710519F406C061E070E0862F0895F2
:103C30008FE7089581E00895803F21F40E949A1D46
:103C4000819504C0813F29F40E949A1D809300024F
:103C50000895823F21F40E949A1D819504C0833FFC
:103C600029F40E949A1D8093FF010895893F19F459
:103C70000E94E31D05C08A3F31F40E94E31D819537
:103C80008093010208958B3F21F40E94E31D8195EA
:103C900004C08C3F29F40E94E31D80930202089522
:103CA000843F21F48091FE01816017C0853F21F49B
:103CB0008091FE01826011C0863F21F48091FE0157
:103CC00084600BC0873F21F48091FE01886005C0AD
:103CD000883F31F48091FE0180618093FE01089558
:103CE0008D3F21F48091FC0181600BC08E3F21F457
:103CF0008091FC01826005C08F3F29F48091FC0116
:103D000084608093FC010895803F39F48091000223
:103D100087FF6CC01092000269C0813F29F4809136
:103D200000021816BCF362C09091FF01823F29F493
:103D300097FF5CC01092FF0159C0833F19F4191618
:103D4000CCF354C0893F41F48091010218160CF065
:103D50004DC0109201024AC08A3F29F480910102AD
:103D600087FF44C0F6CF8B3F39F48091020287FF72
:103D70003DC0109202023AC08C3F29F480910202A9
:103D80001816BCF333C0843F21F48091FE018E7F6E
:103D900017C0853F21F48091FE018D7F11C0863FC1
:103DA00021F48091FE018B7F0BC0873F21F480912D
:103DB000FE01877F05C0883F31F48091FE018F7E30
:103DC0008093FE0113C08D3F21F48091FC018E7F12
:103DD0000BC08E3F21F48091FC018D7F05C08F3F89
:103DE00029F48091FC018B7F8093FC018091FF017D
:103DF00081110EC08091000281110AC080910102E0
:103E0000811106C080910202811102C01092FD0151
:103E100008958EEF91E00E94580F0E94B01B90937E
:103E2000FB018093FA0108951F93CF93DF93809154
:103E3000FA019091FB010E94BC1BAC019091FD0125
:103E4000992321F02091070130E006C0209108015C
:103E50008AE0289F900111244217530708F485C077
:103E60008091FF01C0910002D091010210910202E5
:103E7000811107C0C11175C0D11173C0111171C07A
:103E800074C09F3F19F09F5F9093FD01181624F4B2
:103E90000E949A1D8093FF018091FF0187FF05C05A
:103EA0000E949A1D81958093FF011C1624F40E94A4
:103EB0009A1D809300028091000287FF05C00E9436
:103EC0009A1D8195809300026091FF01662331F174
:103ED000C0910002CC2311F1062E000C770B880B49
:103EE000990B0E94F62623E333E343E35FE30E944A
:103EF0005A270E94BE266093FF016C2FCC0F770BD0
:103F0000880B990B0E94F62623E333E343E35FE338
:103F10000E945A270E94BE26609300021D1624F4B8
:103F20000E94E31D809301028091010287FF05C07A
:103F30000E94E31D819580930102111624F40E94D2
:103F4000E31D809302028091020287FF05C00E9458
:103F5000E31D819580930202DF91CF911F910C9414
:103F6000091F9F3F09F08FCFA0CFDF91CF911F9105
:103F70000895EEEFF1E085E0DF011D928A95E9F703
:103F80001092FD011092FC01089580912302089582
:103F9000CF93DF9300D01F92CDB7DEB79C01809105
:103FA0003D02843019F593E099833B832A839093F3
:103FB000E9008FEF9091E800815095FD06C095EDE6
:103FC0009A95F1F700008111F5CF8091E80085FF07
:103FD0000DC040E050E063E070E0CE0101960E9429
:103FE0002A228091E8008E778093E8000F900F904E
:103FF0000F90DF91CF910895CF93DF9300D01F9260
:10400000CDB7DEB720913D02243031F522E029837F
:10401000805891099B838A8383E08093E9008FEF26
:104020009091E800815095FD06C095ED9A95F1F7C5
:1040300000008111F5CF8091E80085FF0DC040E0C0
:1040400050E063E070E0CE0101960E942A22809148
:10405000E8008E778093E8000F900F900F90DF912B
:10406000CF91089520913D022430F1F422E0209375
:10407000E9002FEF3091E800215035FD06C035ED05
:104080003A95F1F700002111F5CF2091E80025FFC6
:104090000BC040E050E065E070E00E942A22809171
:1040A000E8008E778093E8000895CF93DF93EC01CA
:1040B00090913D02943009F046C08091130188230D
:1040C000D9F08091370287FF17C09093E9008FEFF6
:1040D0009091E800815095FD06C095E19A95F1F721
:1040E00000008111F5CF8091E80085FF2CC040E0F1
:1040F00050E060E270E017C081E08093E9008FEF4C
:104100009091E800815095FD06C095ED9A95F1F7E4
:1041100000008111F5CF8091E80085FF14C040E0D8
:1041200050E068E070E0CE010E942A228091E80011
:104130008E778093E80080E2FE01A3E0B2E0019078
:104140000D928A95E1F7DF91CF91089580913C021D
:10415000811109C00E94BB230E9418248091E200B3
:1041600084608093E200089510923C0208950895BF
:1041700008950C94781B42E061EC81E00E943423A6
:1041800042E061EC82E00E94342342E061EC83E093
:104190000E94342342E261EC84E00C943423809149
:1041A0003F02833009F455C030F4813071F0823021
:1041B00009F48EC008958A3009F47AC08B3009F46E
:1041C00060C0893009F09CC020C080913E02813AD5
:1041D00009F096C08091E800877F8093E800809185
:1041E000420290914302892B21F460E283E092E045
:1041F00003C060E080E090E070E00E947522809152
:10420000E8008B778093E800089580913E02813228
:1042100009F076C08091420290914302009719F014
:10422000039709F06DC08091E800877F8093E800D4
:104230008091E80082FD05C080913D028111F8CF98
:104240005FC08091F100809323028091E8008B771A
:1042500053C080913E02813A09F052C080914202DF
:1042600090914302892B09F04BC08091E800877F31
:104270008093E8008091E80080FFFCCF80911301DB
:1042800036C080913E028132D9F5809142029091F0
:104290004302892BA9F58091E800877F8093E8008D
:1042A0000E94692380914002809313010C94DC13D7
:1042B00080913E02813221F58091E800877F8093D2
:1042C000E8000E94692380914102809324020895AE
:1042D00080913E02813AA1F48091E800877F80932B
:1042E000E8008091E80080FFFCCF80912402809359
:1042F000F1008091E8008E778093E8000C946923A8
:10430000089584B7877F84BF0FB6F894A8958091ED
:104310006000886180936000109260000FBE80E8AA
:1043200080936100109261000E94900F0E94BB2355
:104330000E9418248091E20084608093E2007894C7
:104340000E94A3260E94920F89E091E00E943C0FF8
:1043500080913D02853069F40E94351B80913B02BB
:104360008823B1F30E94641B882391F30E941422D6
:10437000EFCF0E949A0F0E94090FEACF292F33270F
:1043800023303105C9F060F42130310581F022304D
:10439000310509F041C08DE690E027E038E040C0EB
:1043A00021323105E1F02232310531F135C082E1AF
:1043B00090E024E738E034C099278130910549F036
:1043C00028F0029749F5E7EDF7E005C0E3E0F8E0F3
:1043D00002C0EBEEF7E0849190E09F0121C06430D1
:1043E000D8F4E62FF0E0EE0FFF1FE45DFE4F2081D2
:1043F000318189E090E014C0643070F470E0FB011A
:10440000EE0FFF1FEC5DFE4F20813181FB01E05E6E
:10441000FE4F808190E004C080E090E020E030E03A
:10442000FA0131832083089580E189BD82E189BD4D
:1044300009B400FEFDCF8091D8008F7D8093D80015
:104440008091E00082608093E0008091E00081FD37
:10445000FCCF0895CF92DF92EF92FF920F931F93BC
:10446000CF93DF93EC018B017A010E9488238111A5
:1044700033C0E114F10439F0F70180819181081B08
:10448000190BC80FD91FC12CD12C0115110519F119
:104490008091E80085FD16C08091E8008E778093BA
:1044A000E800E114F10449F0F70180819181C80E20
:1044B000D91ED182C08285E00FC00E948823882344
:1044C00021F30AC089918093F10001501109FFEF97
:1044D000CF1ADF0ADACF80E0DF91CF911F910F91E1
:1044E000FF90EF90DF90CF9008952091440230919B
:1044F00045022617370748F06115710539F42091F8
:10450000E8002E772093E80001C0B901FC0120E00B
:104510006115710579F180913D028823F1F18530B3
:10452000F1F18091E80083FD3CC08091E80082FDBC
:104530002EC08091E80080FFEBCF2091F3008091A6
:10454000F20090E0922B6115710551F088309105D1
:1045500038F421912093F100615071090196F3CF55
:1045600021E0089709F020E08091E8008E778093A1
:10457000E800CECF2111CFCF0AC080913D02882321
:1045800061F0853061F08091E80083FD0AC0809180
:10459000E80082FFF2CF80E0089582E0089583E092
:1045A000089581E008952091440230914502261734
:1045B000370748F06115710539F42091E8002E772E
:1045C0002093E80001C0B901FC0120E061157105EC
:1045D00091F180913D02882309F440C0853009F4AF
:1045E0003FC08091E80083FD3DC08091E80082FDDE
:1045F0002FC08091E80080FFE9CF2091F3008091E7
:10460000F20090E0922B6115710559F08830910508
:1046100040F424912093F100319661507109019684
:10462000F2CF21E0089709F020E08091E8008E7732
:104630008093E800CBCF2111CCCF0AC080913D02FE
:10464000882361F0853061F08091E80083FD0AC025
:104650008091E80082FFF2CF80E0089582E0089523
:1046600083E0089581E00895982F973068F590933E
:10467000E900981739F07091EC002091ED0050910D
:10468000F00003C0242F762F50E021FD02C09F5F71
:10469000ECCF3091EB003E7F3093EB003091ED009A
:1046A0003D7F3093ED003091EB0031603093EB00B3
:1046B0007093EC002093ED005093F0002091EE00F9
:1046C00027FDE5CF80E008958F708093E90081E0B9
:1046D000089580913E0287FF11C08091E80082FD1D
:1046E00005C080913D028111F8CF11C08091E80092
:1046F0008B770BC080913D02882349F08091E800C0
:1047000080FFF8CF8091E8008E778093E8000895CD
:104710002091E4003091E50095E64091EC00842F73
:10472000817040FF23C08091E80080FD1DC0809112
:104730003D02882399F0853099F08091EB0085FD4A
:1047400011C04091E4005091E5002417350729F38A
:10475000915011F09A01E1CF84E0089582E008952C
:1047600083E0089581E0089580E008954091E80095
:1047700042FFDDCF08950E9429240E943124E0EEFB
:10478000F0E0808181608083E8EDF0E080818F77C8
:10479000808319BCA7EDB0E08C918E7F8C938081D3
:1047A0008F7E808310923C0208950F931F93CF93C6
:1047B000DF930E9429240E943124C8EDD0E0888133
:1047C0008F77888388818068888388818F7D8883BC
:1047D00019BC10923D021092390210923B021092C5
:1047E0003A0200EE10E0F80180818B7F808388819F
:1047F0008160888342E060E080E00E943423E1EE43
:10480000F0E080818E7F8083E2EEF0E08081816045
:104810008083808188608083F80180818E7F80839F
:10482000888180618883DF91CF911F910F910895D6
:10483000E8EDF0E080818F7E8083E7EDF0E080811D
:104840008160808384E082BF81E080933C020C948D
:10485000D523E8EDF0E080818E7F80831092E20026
:1048600008951092DA001092E10008951F920F92BD
:104870000FB60F9211242F933F934F935F936F9333
:104880007F938F939F93AF93BF93EF93FF93809109
:10489000E10082FF0BC08091E20082FF07C080919F
:1048A000E1008B7F8093E1000E94A2268091DA00D4
:1048B00080FF1FC08091D80080FF1BC08091DA006C
:1048C0008E7F8093DA008091D90080FF0DC080E157
:1048D00089BD82E189BD09B400FEFDCF81E08093EE
:1048E0003D020E94A62005C019BC10923D020E9404
:1048F000B4208091E10080FF19C08091E20080FF28
:1049000015C08091E2008E7F8093E2008091E200EA
:1049100080618093E2008091D80080628093D8000B
:1049200019BC85E080933D020E94B8208091E1008F
:1049300084FF30C08091E20084FF2CC080E189BDFB
:1049400082E189BD09B400FEFDCF8091D8008F7D42
:104950008093D8008091E1008F7E8093E100809168
:10496000E2008F7E8093E2008091E200816080937C
:10497000E20080913902882311F084E007C0809121
:10498000E30087FD02C081E001C083E080933D0227
:104990000E94B9208091E10083FF29C08091E2004C
:1049A00083FF25C08091E100877F8093E10082E052
:1049B00080933D02109239028091E1008E7F8093B6
:1049C000E1008091E2008E7F8093E2008091E2001E
:1049D00080618093E20042E060E080E00E94342346
:1049E0008091F00088608093F0000E94B720FF91D2
:1049F000EF91BF91AF919F918F917F916F915F9157
:104A00004F913F912F910F900FBE0F901F901895CF
:104A10001F920F920FB60F9211242F933F934F9333
:104A20005F936F937F938F939F93AF93BF93CF9336
:104A3000DF93EF93FF93C091E900CF708091EC007A
:104A4000D82FD17080FDD0E81092E9008091F0005D
:104A5000877F8093F00078940E944C251092E900A3
:104A60008091F00088608093F000CD2BCF70C093D0
:104A7000E900FF91EF91DF91CF91BF91AF919F91AD
:104A80008F917F916F915F914F913F912F910F90F7
:104A90000FBE0F901F9018951F93CF93DF93CDB744
:104AA000DEB7AA970FB6F894DEBF0FBECDBFEEE318
:104AB000F2E08091F100819322E0E634F207C9F739
:104AC0000E94CF208091E80083FF24C180913E02A4
:104AD00090913F02492F50E04A30510508F01AC129
:104AE000FA01E556FF4F0C941728803881F0823880
:104AF00009F010C1809142028F708093E90080918B
:104B0000EB0085FB882780F91092E90006C08091B0
:104B10003A0290913B02911182609091E800977F58
:104B20009093E8008093F1001092F100C8C0282F04
:104B30002D7F09F0EFC0882319F0823061F0EAC0C0
:104B400080914002813009F0E5C0933009F080E0A7
:104B500080933B022BC080914002811127C080913D
:104B600042028F7009F4D6C08093E9002091EB00D7
:104B700020FF1CC0933021F48091EB00806214C0B0
:104B80009091EB0090619093EB0021E030E0A9015F
:104B900002C0440F551F8A95E2F74093EA00109235
:104BA000EA008091EB0088608093EB001092E900AE
:104BB0008091E800877F86C08111ACC010914002CF
:104BC0001F778091E3008078812B8093E3008091B0
:104BD000E800877F8093E8000E9469238091E800C5
:104BE00080FFFCCF8091E30080688093E300111187
:104BF00002C082E001C083E080933D028BC08058F8
:104C0000823008F087C080914002909141028C3D33
:104C100053E0950779F583E08A838AE289834FB769
:104C2000F894DE01139620E03EE051E2E32FF0E03D
:104C300050935700E49120FF03C0E295EF703F5F6F
:104C4000EF708E2F90E0EA3010F0C79601C0C0964A
:104C50008D939D932F5F243149F74FBF8091E800DA
:104C6000877F8093E8006AE270E0CE0101960E949F
:104C7000752214C0AE014F5F5F4F609142020E94E7
:104C8000BE21BC01892B09F445C09091E800977FB3
:104C90009093E80089819A810E94D3228091E80054
:104CA0008B778093E80036C08038A1F58091E800CA
:104CB000877F8093E800809139028093F100809192
:104CC000E8008E778093E8000E94692323C0811159
:104CD00021C0809140029091410299270297D4F41B
:104CE0008091E800877F8093E80080914002809364
:104CF00039020E94692380913902811106C0809196
:104D0000E30087FD02C081E001C084E080933D02A2
:104D10000E94BB208091E80083FF0AC08091E800D8
:104D2000877F8093E8008091EB0080628093EB00A6
:104D3000AA960FB6F894DEBF0FBECDBFDF91CF911C
:104D40001F9108950895CF9380913D028823A1F08B
:104D5000C091E900CF709091EC00892F817090FD97
:104D600080E8C82B1092E9008091E80083FD0E9442
:104D70004C25CF70C093E900CF9108950E94C526BD
:104D80006894B1110C94542708950E94392788F033
:104D90009F5798F0B92F9927B751B0F0E1F0660FFF
:104DA000771F881F991F1AF0BA95C9F714C0B13040
:104DB00091F00E945327B1E008950C945327672F78
:104DC000782F8827B85F39F0B93FCCF3869577956F
:104DD0006795B395D9F73EF4909580957095619558
:104DE0007F4F8F4F9F4F0895E89409C097FB3EF483
:104DF00090958095709561957F4F8F4F9F4F992328
:104E0000A9F0F92F96E9BB279395F69587957795A5
:104E10006795B795F111F8CFFAF4BB0F11F460FF65
:104E20001BC06F5F7F4F8F4F9F4F16C0882311F0BD
:104E300096E911C0772321F09EE8872F762F05C0D1
:104E4000662371F096E8862F70E060E02AF09A956C
:104E5000660F771F881FDAF7880F9695879597F961
:104E6000089557FD9058440F551F59F05F3F71F05A
:104E70004795880F97FB991F61F09F3F79F08795C1
:104E80000895121613061406551FF2CF4695F1DF4A
:104E900008C0161617061806991FF1CF86957105DA
:104EA000610508940895E894BB2766277727CB010E
:104EB00097F908950E946D270C94DE270E94D02751
:104EC00038F00E94D72720F0952311F00C94C727C3
:104ED0000C94CD2711240C9454270E94312770F391
:104EE000959FC1F3950F50E0551F629FF001729F8F
:104EF000BB27F00DB11D639FAA27F00DB11DAA1F9E
:104F0000649F6627B00DA11D661F829F2227B00DEA
:104F1000A11D621F739FB00DA11D621F839FA00D75
:104F2000611D221F749F3327A00D611D231F849FC5
:104F3000600D211D822F762F6A2F11249F5750401C
:104F40009AF0F1F088234AF0EE0FFF1FBB1F661F97
:104F5000771F881F91505040A9F79E3F510580F060
:104F60000C94C7270C9454275F3FE4F3983ED4F386
:104F7000869577956795B795F795E7959F5FC1F704
:104F8000FE2B880F911D9695879597F9089597F9AF
:104F90009F6780E870E060E008959FEF80EC0895DF
:104FA00000240A9416161706180609060895002408
:104FB0000A9412161306140605060895092E039482
:104FC000000C11F4882352F0BB0F40F4BF2B11F4F6
:104FD00060FF04C06F5F7F4F8F4F9F4F0895AA1BE4
:104FE000BB1B51E107C0AA1FBB1FA617B70710F0D4
:104FF000A61BB70B881F991F5A95A9F78095909506
:10500000BC01CD01089597FB072E16F4009407D03C
:1050100077FD09D00E94EF2707FC05D03EF490955C
:1050200081959F4F0895709561957F4F0895EE0F7C
:10503000FF1F0590F491E02D0994F999FECF92BDE0
:1050400081BDF89A992780B50895A6E1B0E044E0C3
:1050500050E00C945728A8E1B0E042E050E00C94F6
:105060005728262FF999FECF92BD81BDF89A019756
:1050700000B4021639F01FBA20BD0FB6F894FA9AA0
:10508000F99A0FBE08950396272F0E9432280E9496
:105090003128252F0E943228242F0C943228019683
:1050A000272F0E9432280C943128DC01CB01FC010F
:1050B000F999FECF06C0F2BDE1BDF89A319600B471
:0E50C0000D9241505040B8F70895F894FFCF7C
:1050CE00FFD5012808140A321EC51F55203220FCB8
:1050DE001FC81F01923494F7F531933591C6F433FE
:1050EE00404D36394209F508BF08860819083208BE
:0450FE004B086408EF
:00000001FF
